:02000004085F93
:1050000000505F08FCFF5F0800000600200005015B
:085010000401E015000000009E
:105018001348144908B5884205D0134A824202D081
:10502800124B121A98471248124A0021124B121AB0
:10503800984712481249884205D0124A824202D043
:105048000A4B121A984710481049884205D0104A4E
:10505800824202D0054B121A9847014808BD00BF8A
:105068006C19061008F05F08F41906102D0D1110C0
:10507800001A0610F4AF0710A10E111090603F023D
:10508800A8505F0898603F0298603F02B0505F08E0
:0C509800F0FF3F0219505F08000000000C
:0850A8009C505F0828CB3F0279
:1050B00081F0004102E000BF83F0004330B54FEAC9
:1050C00041044FEA430594EA050F08BF90EA020F36
:1050D0001FBF54EA000C55EA020C7FEA645C7FEAC9
:1050E000655C00F0E2804FEA5454D4EB5555B8BFEC
:1050F0006D420CDD2C4480EA020281EA030382EA5D
:10510000000083EA010180EA020281EA0303362DEE
:1051100088BF30BD11F0004F4FEA01314FF4801CC1
:105120004CEA113102D0404261EB410113F0004FD3
:105130004FEA03334CEA133302D0524263EB43038A
:1051400094EA050F00F0A780A4F10104D5F1200E28
:105150000DDB02FA0EFC22FA05F2801841F1000183
:1051600003FA0EF2801843FA05F359410EE0A5F157
:1051700020050EF1200E012A03FA0EFC28BF4CF088
:10518000020C43FA05F3C01851EBE37101F000453E
:1051900007D54FF0000EDCF1000C7EEB00006EEB4B
:1051A0000101B1F5801F1BD3B1F5001F0CD34908D5
:1051B0005FEA30004FEA3C0C04F101044FEA44522C
:1051C00012F5800F80F09A80BCF1004F08BF5FEAB3
:1051D000500C50F1000041EB045141EA050130BD93
:1051E0005FEA4C0C404141EB0101013C28BFB1F5A5
:1051F000801FE9D291F0000F04BF01460020B1FAF0
:1052000081F308BF2033A3F10B03B3F120020CDAC2
:105210000C3208DD02F1140CC2F10C0201FA0CF0A0
:1052200021FA02F10CE002F11402D8BFC2F1200C05
:1052300001FA02F120FA0CFCDCBF41EA0C019040BB
:10524000E41AA2BF01EB0451294330BD6FEA040404
:105250001F3C1CDA0C340EDC04F11404C4F12002EF
:1052600020FA04F001FA02F340EA030021FA04F301
:1052700045EA030130BDC4F10C04C4F1200220FA58
:1052800002F001FA04F340EA0300294630BD21FA96
:1052900004F0294630BD94F0000F83F4801306BF5C
:1052A00081F480110134013D4EE77FEA645C18BF50
:1052B0007FEA655C29D094EA050F08BF90EA020FE7
:1052C00005D054EA000C04BF1946104630BD91EADF
:1052D000030F1EBF0021002030BD5FEA545C05D1E2
:1052E0004000494128BF41F0004130BD14F5800421
:1052F0003CBF01F5801130BD01F0004545F0FE4195
:1053000041F470014FF0000030BD7FEA645C1ABFC9
:10531000194610467FEA655C1CBF0B46024650EA00
:10532000013406BF52EA033591EA030F41F400212C
:1053300030BD00BF90F0000F04BF0021704730B5B2
:105340004FF4806404F132044FF000054FF0000187
:1053500050E700BF90F0000F04BF0021704730B548
:105360004FF4806404F1320410F0004548BF40421D
:105370004FF000013EE700BF42004FEAE2014FEA72
:1053800031014FEA02701FBF12F07F4393F07F4F4D
:1053900081F06051704732F07F4208BF704793F050
:1053A0007F4F04BF41F40021704730B54FF4607463
:1053B00001F0004521F000411CE700BF50EA010266
:1053C00008BF704730B54FF000050AE050EA01020F
:1053D00008BF704730B511F0004502D5404261EB7F
:1053E00041014FF4806404F132045FEA915C3FF4C0
:1053F000D8AE4FF003025FEADC0C18BF03325FEA5D
:10540000DC0C18BF033202EBDC02C2F1200300FA0D
:1054100003FC20FA02F001FA03FE40EA0E0021FA32
:1054200002F11444BDE600BF70B54FF0FF0C4CF420
:10543000E06C1CEA11541DBF1CEA135594EA0C0FD2
:1054400095EA0C0F00F0DEF82C4481EA030621EA0D
:105450004C5123EA4C5350EA013518BF52EA033548
:1054600041F4801143F4801338D0A0FB02CE4FF0FA
:105470000005E1FB02E506F00042E0FB03E54FF02A
:105480000006E1FB03569CF0000F18BF4EF0010E22
:10549000A4F1FF04B6F5007F64F5407404D25FEA1E
:1054A0004E0E6D4146EB060642EAC62141EA5551D1
:1054B0004FEAC52040EA5E504FEACE2EB4F1FD0C13
:1054C00088BFBCF5E06F1ED8BEF1004F08BF5FEA91
:1054D000500E50F1000041EB045170BD06F0004643
:1054E00046EA010140EA020081EA0301B4EB5C04F0
:1054F000C2BFD4EB0C0541EA045170BD41F48011E8
:105500004FF0000E013C00F3AB8014F1360FDEBF0C
:10551000002001F0004170BDC4F10004203C35DAE8
:105520000C341BDC04F11404C4F1200500FA05F36B
:1055300020FA04F001FA05F240EA020001F000420C
:1055400021F0004110EBD37021FA04F642EB060182
:105550005EEA430E08BF20EAD37070BDC4F10C04AC
:10556000C4F1200500FA04F320FA05F001FA04F270
:1055700040EA020001F0004110EBD37041F100015C
:105580005EEA430E08BF20EAD37070BDC4F1200567
:1055900000FA05F24EEA020E20FA04F301FA05F2CF
:1055A00043EA020321FA04F001F0004121FA04F277
:1055B00020EA020000EBD3705EEA430E08BF20EA47
:1055C000D37070BD94F0000F0FD101F00046400081
:1055D00041EB010111F4801F08BF013CF7D041EA03
:1055E000060195F0000F18BF704703F00046520007
:1055F00043EB030313F4801F08BF013DF7D043EAD8
:105600000603704794EA0C0F0CEA135518BF95EA8D
:105610000C0F0CD050EA410618BF52EA4306D1D114
:1056200081EA030101F000414FF0000070BD50EA33
:10563000410606BF1046194652EA430619D094EABD
:105640000C0F02D150EA013613D195EA0C0F05D1A7
:1056500052EA03361CBF104619460AD181EA0301FB
:1056600001F0004141F0FE4141F470014FF00000B3
:1056700070BD41F0FE4141F4780170BD70B54FF04E
:10568000FF0C4CF4E06C1CEA11541DBF1CEA1355CE
:1056900094EA0C0F95EA0C0F00F0A7F8A4EB0504B0
:1056A00081EA030E52EA03354FEA013100F08880A7
:1056B0004FEA03334FF0805545EA131343EA126370
:1056C0004FEA022245EA111545EA10654FEA002625
:1056D0000EF000419D4208BF964244F1FD0404F5DE
:1056E000407402D25B084FEA3202B61A65EB03053A
:1056F0005B084FEA32024FF480104FF4002CB6EBF7
:10570000020E75EB030E22BFB61A754640EA0C0076
:105710005B084FEA3202B6EB020E75EB030E22BFB6
:10572000B61A754640EA5C005B084FEA3202B6EBF7
:10573000020E75EB030E22BFB61A754640EA9C00B6
:105740005B084FEA3202B6EB020E75EB030E22BF86
:10575000B61A754640EADC0055EA060E18D04FEA44
:10576000051545EA16754FEA06164FEAC30343EAE4
:1057700052734FEAC2025FEA1C1CC0D111F4801FB1
:105780000BD141EA00014FF000004FF0004CB6E7AA
:1057900011F4801F04BF01430020B4F1FD0C88BF49
:1057A000BCF5E06F3FF6AFAEB5EB030C04BFB6EB54
:1057B000020C5FEA500C50F1000041EB045170BD47
:1057C0000EF0004E4EEA113114EB5C04C2BFD4EB74
:1057D0000C0541EA045170BD41F480114FF0000EF8
:1057E000013C90E645EA060E8DE60CEA135594EA74
:1057F0000C0F08BF95EA0C0F3FF43BAF94EA0C0F77
:105800000AD150EA01347FF434AF95EA0C0F7FF4EB
:1058100025AF104619462CE795EA0C0F06D152EA3F
:1058200003353FF4FDAE1046194622E750EA410623
:1058300018BF52EA43067FF4C5AE50EA41047FF434
:105840000DAF52EA43057FF4EBAE12E74FF0FF3C99
:1058500006E000BF4FF0010C02E000BF4FF0010C6A
:105860004DF804CD4FEA410C7FEA6C5C4FEA430CE3
:1058700018BF7FEA6C5C1BD001B050EA410C0CBF32
:1058800052EA430C91EA030F02BF90EA020F002094
:10589000704710F1000F91EA030F58BF994208BFFB
:1058A00090422CBFD8176FEAE37040F001007047B8
:1058B0004FEA410C7FEA6C5C02D150EA013C07D10F
:1058C0004FEA430C7FEA6C5CD6D152EA033CD3D05A
:1058D0005DF8040B704700BF8446104662468C4654
:1058E0001946634600E000BF01B5FFF7B7FF002887
:1058F00048BF10F1000F01BD4DF808EDFFF7F4FFB0
:105900000CBF012000205DF808FB00BF4DF808ED3A
:10591000FFF7EAFF34BF012000205DF808FB00BF5D
:105920004DF808EDFFF7E0FF94BF012000205DF87F
:1059300008FB00BF4DF808EDFFF7CEFF94BF012034
:1059400000205DF808FB00BF4DF808EDFFF7C4FF2D
:1059500034BF012000205DF808FB00BF4FEA410C76
:105960007FEA6C5C02D150EA013C0AD14FEA430C59
:105970007FEA6C5C02D152EA033C02D14FF0000096
:1059800070474FF0010070474FEA410212F50012D4
:1059900015D211D56FF47873B3EB625212D94FEA76
:1059A000C12343F0004343EA505311F0004F23FA60
:1059B00002F018BF404270474FF00000704750EAB5
:1059C000013005D111F0004008BF6FF00040704772
:1059D0004FF00000704700BF4FEA4102B2F1E043D0
:1059E00024BFB3F5001CDCF1FE5C0DD901F0004CC6
:1059F0004FEAC0024CEA5070B2F1004F40EB830016
:105A000008BF20F00100704711F0804F21D113F141
:105A10003872BCBF01F00040704741F480114FEA7A
:105A20005252C2F11802C2F1200C10FA0CF320FA03
:105A300002F018BF40F001004FEAC1234FEAD32320
:105A400003FA0CFC40EA0C0023FA02F34FEA43038A
:105A5000CCE77FEA625307D150EA01331EBF4FF013
:105A6000FE4040F44000704701F0004040F0FE402E
:105A700040F40000704700BF034613F8012B002AD2
:105A8000FBD1181A0138704770B502F0A3FB00254E
:105A9000054E064CA41BA408AC4200D170BD56F8BC
:105AA000043B98470135F7E7CCFF3F02F0FF3F0288
:105AB00001F036BC08B501F00FFDBDE8084002F06A
:105AC00041BB02F0DBB902F0D9B902F0E5B90078C8
:105AD000B0FA80F04009704701230370704718B195
:105AE0009022002105F075BF704700000000000003
:105AF0002DE9F04F2DED108B8346F9B01846069333
:105B000016910392FFF7EBFF2822002118A805F059
:105B100060FF602200212CA805F05BFF9FED5A7BFF
:105B200000238DED047BB0EE47AAF0EE67AAB0EE3D
:105B3000478AF0EE678AB0EE47BAF0EE67BA029392
:105B4000029B029A5B020E93169B0BF5804903EBB6
:105B500002350BF50043083309F108091E464F468C
:105B600000240BF1080800930E9B039AE3189A4255
:105B70001AD9D5E90023F8E80201FFF755FC0134F2
:105B8000B4F5006FE7E8020105F10805A6EC02ABE9
:105B9000EAD1002301240BF580420BF500411032BD
:105BA00010314FF4806003E053EC182BE3E740081A
:105BB00003EA00054340002DF9D1A34214D9D1E9ED
:105BC000006709EBC30595ED006B92ED007B82ED5C
:105BD000006B009800EBC30090ED006B81ED006B53
:105BE00085ED007BC0E900670134B4F5006F02F178
:105BF000080201F10801D4D10B2302279FED1ECB2F
:105C00000F933846FFF796FB0B4602461CA1D1E9DD
:105C10000001FFF733FD41EC100B41EC190B03F0D1
:105C20003BF9B0EE40FAF0EE60FAB0EE490AF0EE61
:105C3000690A03F009FA4E468DED0A0B00257B0830
:105C40001593FB0014937B0803F601040BEBC404CB
:105C500004F580430993159BA0462B44B0EE4BEA14
:105C6000F0EE6BEAB0EE4CDAF0EE6CDA06F5804A54
:105C7000089607951793A4E0000000000000F03F8D
:105C8000182D4454FB2119C0000000000000000042
:105C900098ED007B099BB0EE479AF0EE679A93ED82
:105CA000007B51EC190B53EC1D2B8DED0C7BFFF79A
:105CB000BBFB53EC1E2BCDE91001DDE90C01FFF716
:105CC000B3FB02460B46DDE91001FFF7F5F953EC93
:105CD0001E2BCDE9100151EC190BFFF7A5FBDDE9F7
:105CE0000C2341EC190B51EC1D0BFFF79DFB0246F9
:105CF0000B4651EC190BFFF7E1F9089BCDE91201B6
:105D0000DDE9100193ED007BB0EE479AF0EE679A63
:105D10009AED007B53EC192B8DED0C7BFFF7CEF940
:105D2000089BE3E80201DDE912010893DDE90C2399
:105D3000FFF7C4F9DDE91023EAE8020151EC190B81
:105D4000FFF7BAF9DDE91223E8E80201DDE90C0109
:105D5000FFF7B2F9099BE3E8020151EC1F0B09932D
:105D600053EC1D2BFFF760FB53EC1E2B41EC190B82
:105D7000DDE90A01FFF758FB02460B4651EC190B0F
:105D8000FFF79AF953EC1D2B41EC190BDDE90A01E1
:105D9000FFF74AFB53EC1E2B41EC1D0B51EC1F0B84
:105DA000FFF742FB0B46024651EC1D0BFFF786F94D
:105DB000B0EE49DAF0EE69DA41EC1E0B079B0133D5
:105DC0000793079B179A9342FFF462AF149B3D44DD
:105DD000B5F5006F1C441E44FFF43AAF0F9B7F00E3
:105DE000013B0F937FF40DAF0BF540460836B246EA
:105DF0000BF5C04710370099F9E80223B1EC027B9C
:105E0000B0EE479AF0EE679A104600911946FFF7F8
:105E10000BFB53EC192B04460D4619EE100A1946DC
:105E2000FFF702FB02460B4620462946FFF746F9DC
:105E300009F5204341EC100BC3E9000103F0BAFA65
:105E4000B945AAEC020BD6D19BED007BB0EE479A88
:105E5000F0EE679A1FED747B55EC184B8DED007BCF
:105E6000002740F2014AF6E802893846FFF772FA45
:105E700053EC192BFFF7D8FA00224FF07D53FFF7B0
:105E8000D3FA42464B46FFF7CFFA02460B4620466E
:105E90002946FFF713F942464B4604460D46DDE915
:105EA0000001FFF70BF902460B4601375745CDE9D4
:105EB0000023D8D1FCA3D3E90023FFF7FFF8024663
:105EC0000B4620462946FFF7D9FB0B460246DDE983
:105ED0000401FFF7F3F80BF5803303F11806CDE961
:105EE00004018033089344AB0793D6F800A056F81A
:105EF000044FA245776880F2B8814EF2100303EB9D
:105F0000CA035B440093A4EB0A03554659EC188B73
:105F10000DEE103AB5F5806F26DC009BA5EB0A006C
:105F2000B3EC027BB0EE479AF0EE679A0093FFF76E
:105F300011FA41EC1C0B1DEE100AFFF70BFA02469A
:105F40000B4651EC1C0BFFF799FB53EC192BFFF799
:105F50006BFA02460B4640464946FFF7AFF801355B
:105F6000AC4280468946D5D1BC422BDA4EF21003B2
:105F700003EBC40ADA443D1BB4F5806F22DCBAECB3
:105F8000027B381BB0EE479AF0EE679AFFF7E2F912
:105F900041EC1C0B2846FFF7DDF902460B4651EC9D
:105FA0001C0BFFF76BFB53EC192BFFF73DFA024676
:105FB0000B4640464946FFF781F80134A742804628
:105FC0008946D9D1B8A3D3E9002340464946FFF713
:105FD00075F841EC100B03F08BF8079BA3EC020B58
:105FE0000793089B9E4280D122AB984600270093DE
:105FF0003846FFF7AFF9B4A3D3E90023FFF714FA4B
:1060000055EC184B41EC190B00260DF5887ABAECCB
:10601000027B3046B0EE47CAF0EE67CAFFF79AF946
:1060200002460B46FFF74AF80022A14BFFF746F85D
:1060300053EC192BFFF7F8F900229E4BFFF71EFBDC
:1060400041EC100B02F028FF51EC1C0B53EC102B11
:10605000FFF7EAF902460B4620462946FFF72EF8DD
:1060600001361A2E04460D46D1D10137052FE8E836
:106070000245BDD19BED007B6022002144A8B0EE1B
:10608000479AF0EE679A012505F0A3FC4FF000084F
:106090000BF54044DFF8389210342846FFF75AF9E0
:1060A00053EC192BFFF7C0F900224FF07D53FFF797
:1060B000BBF90022804B06460F46FFF727FC00285D
:1060C00042D142464B4630463946FFF7D7FA41ECBB
:1060D000100B03F00DF872A3D3E9002351EC100B61
:1060E000FFF7CCFA0022754BFFF79EF90022744BA4
:1060F000FEF7E4FF0022002306460F46FFF71AFCD6
:106100000022704B002800F0B38030463946FEF77D
:10611000D5FF41EC100B02F013FF51EC100BFFF711
:1061200033FC0C2390FBF3F603FB16000028B8BFEA
:10613000C01844AB03EBC006D6E90001D4E9002344
:10614000FEF7BCFFC6E9000140F2014301359D4264
:1061500004F10804A1D10DF58878C2464FF00C096E
:1061600000240025FAE8026722462B4630463946CD
:10617000FFF7EAFB08B134463D46B9F10109F1D118
:10618000204649A3D3E900232946FFF7DDFB002879
:1061900077D118AD2E4605240099F1E8022300912D
:1061A000D6E90001FEF78AFF013CE6E80201F3D1DF
:1061B0002CAC27460C26D7E90001F8E80223FEF7AD
:1061C0007DFF013EE7E80201F5D1029B0133029316
:1061D000039BB3F5006F11D90E9B039A03F500736F
:1061E0009A420BD90E9A039902F520629142BFF4AC
:1061F000A7ACCB1AB3F5007FBFF4A2AC029801287C
:1062000038BF0120FFF796F802460B4600202849C8
:10621000FFF734FA0B46024606460F46DDE9040155
:10622000FFF702F9DDF81890069BE9E8020103F197
:1062300030083046F5E802233946FFF7F5F8E9E87B
:106240000201C845F5D1069D90353046F4E8022399
:106250003946FFF7E9F8E8E80201A845F5D1012041
:1062600079B0BDEC108BBDE8F08F59EC188B7BE654
:1062700030463946FEF720FF41EC100B02F08CFD52
:106280004BE747460C26D7E9000122462B46FFF78D
:10629000F5F9013EE7E80201F5D17AE7AFF30080B6
:1062A000EF39FAFE422EE63F11EA2D819997713DB2
:1062B0000000F03F00004A40000049400000284034
:1062C000004051400000E03F182D4454FB2109409C
:1062D00000807B40000000002DE9F84F04462DEDC2
:1062E000028BB0EE408AF0EE608A002800F09880C1
:1062F0000FF26419D9E90089A2460021524A05F03B
:1063000068FB0025AAEC028B0026504F2846FFF7B9
:1063100021F842464B46FFF787F843A3D3E9002311
:10632000FFF7ACF941EC100B02F0B6FD324651EC30
:10633000100B3B46FFF778F802460B4630463946CD
:10634000FEF7BAFE0135B5F5006FEAE80201DDD1CE
:10635000D4E9000100223D4BFFF766F800223C4BD8
:10636000FFF78CF900223B4BFEF7A8FE41EC100B27
:1063700002F006FF2EA3D3E9002351EC100BFFF728
:1063800053F8002506460F464FF0000804F5803A02
:10639000DFF8CC900AF1180B2846FEF7DBFF3246F7
:1063A0003B46FFF741F842464B46FFF767F90022AC
:1063B0000023FEF783FE1EA3D3E90023FFF75EF957
:1063C0009FED1D0B41EC110B02F022FF002251EC5E
:1063D000100B204BFEF770FE00221D4BFFF724F838
:1063E00017A3D3E90023FFF71FF8D4E90023FFF731
:1063F00045F941EC100B02F0A3FD51EC100BFFF737
:10640000C3FAB0F5806FA8BF4FF48060013520EA71
:10641000E0701C2D4BF8040BBED10120CAF8880097
:10642000BDEC028BBDE8F88F0000000000FC9F402F
:10643000000000000046A4400000000000002440CE
:10644000000000000002A040900001000000E03FBA
:1064500000E085400000F03F182D4454FB21194016
:1064600000003B40F0B450B149B143B100F5803475
:10647000D4F888401CB112B1F0BCFFF739BB002042
:10648000F0BC70470C21054A92F83D304B43D118BF
:10649000D35C0BB948687047002070470023061092
:1064A00038B50C4D0A4695F83D4028B10C2303FB46
:1064B0000453596805F066FA0C230122634314441F
:1064C000E4B2042CEA540ABF002385F83D4085F865
:1064D0003D3038BD00230610094A92F83E1069B9D4
:1064E0000C2092F83C3058430133DBB2042B11549A
:1064F00002D082F83C30704782F83C10704700BFF1
:10650000002306100C21084B93F83C204A439918AD
:106510009A5C22B10022486883F83E20704701222D
:10652000586B83F83E20704700230610064B93F803
:106530003E200AB1986B70470C2193F83C2001FB78
:1065400002339868704700BF0023061037B5214B0F
:1065500004465B69D8031AD5636A228DD9064FEACF
:10656000820208D023F01F01013B134423F01F03D4
:1065700020335A1A0B46BFF34F8F16481344002A94
:10658000A3EB020121DCBFF34F8FBFF36F8F617864
:10659000114B20789847FFF79FFFFFF7B3FF01905B
:1065A000FFF7C4FF0546019A617820780B4B9847A6
:1065B00061782078AA080A4B9847012261782078F0
:1065C000084B03B0BDE830401847C0F85C12203AD1
:1065D000D5E700BF00ED00E0A5BD1010B9C2101056
:1065E00009C3101091BF1010B0F5FA5FF7B51CD0B9
:1065F000B0F5FA4F14BF05250325374B0120B1FA3A
:1066000081F498474FF0414101220846334FB84783
:10661000334901220846B847EB1E6409042B07D80A
:10662000DFE803F00506560658000725E5E70C26C7
:10663000304602F00DFA022322462846002100F0DF
:106640009FF8284D00212120A84700212220A8479B
:10665000254D0C212120A8470C212220A847234B9F
:10666000234A01255A6380229A6300224FF4007066
:1066700020499A8783F83E200132042AC3E9011099
:106680001D7001F5007103F10C03F5D100261A4DC0
:106690001A4B28469847294619481A4BAC602E6079
:1066A000984701211648184B98470121174B144869
:1066B0009847FFF727FF0446FFF738FF144ACDE954
:1066C000004011463046134B134CA04703B0F0BDB9
:1066D0001826ADE73026ABE7519A3F02390011107A
:1066E0000000084099CF1010B9CF101000230610F9
:1066F000801A0610001B0610541A0610059B3F0254
:1067000000080140599B3F02F99B3F02359B3F0225
:10671000001A061035753F021D9C3F0208B5FFF7B1
:10672000B1FE00B908BD00210846FFF7B9FEF6E743
:10673000FFF7A8BEFFF7B4BE0904064A41EA0020ED
:1067400040F00100044B10601168C90701D5013BFE
:10675000FAD1704700000140A0860100064A0002FD
:1067600040F01000106005481368D90602D50138C2
:10677000FAD17047180C704700000140A086010054
:106780002DE9F34717464FF090421D468846D2F850
:106790004433116923F0FE0349014CBF43F0540315
:1067A00043F0D00315F010040646C2F8443340EA23
:1067B000001959D04FF421611220FFF7BDFF4FF4AB
:1067C00021611520FFF7B8FF1B20FFF7C7FF40F03E
:1067D000070081B21B20FFF7AFFF1B20FFF7BEFFB2
:1067E00040F0100081B21B20FFF7A6FF41F6BF71F9
:1067F0001820FFF7A1FFFB20FFF7B0FF40F00200D9
:1068000081B2FB20FFF798FF1120FFF7A7FF20F4CC
:10681000005141F4805189B21120FFF78DFF1420FF
:10682000FFF79CFF20F4005141F4805189B21420FD
:10683000FFF782FF1820FFF791FF6FEAC0406FEA71
:10684000D04081B21820FFF777FF17211B20FFF7F8
:1068500073FF49461720FFF76FFF8021102002B019
:10686000BDE8F047FFF768BF0320FFF777FF20F48C
:10687000406141F40061032089B2FFF75DFF15F02C
:10688000080A4AD01820FFF769FF40F03F0081B2A4
:106890001820FFF751FF2046FFF760FF00F440602B
:1068A00040F4467141F003012046FFF745FF40F2F6
:1068B000FC710120FFF740FF0220FFF74FFF00F4BB
:1068C000E05040F4014141F0EA010220FFF734FFBB
:1068D00010210C20FFF730FF49F6FC710120FFF773
:1068E0002BFF0220FFF73AFF00F4E05040F4014193
:1068F00041F0FA010220FFF71FFF2046FFF72EFFAD
:1069000000F4406040F4667141F003012046FFF757
:1069100013FF18210C20FFF70FFF15F005042FD0EF
:106920000220FFF71BFF20F4C04141F40141022087
:1069300089B2FFF701FF052005F0FAF8EA077FD5D5
:106940000C20FFF70BFF40F0100081B20C20FFF786
:10695000F3FE0220FFF702FF40F4C06081B2022084
:10696000FFF7EAFE642005F0E3F80320FFF7F6FEE8
:1069700020F0F00141F4687189B20320FFF7DCFEDA
:1069800015F00D0F02D0C82005F0C2F8BAF1000FC3
:1069900020D00020FFF7E2FE00F4406040F40671D2
:1069A00041F003010020FFF7C7FE40F2FC41012047
:1069B000FFF7C2FE0220FFF7D1FE00F4E05040F4E2
:1069C000014141F0EA010220FFF7B6FE10210C2040
:1069D000FFF7B2FE6CB10020FFF7C0FE40F460602C
:1069E00040F0010081B20020FFF7A6FE322005F042
:1069F0009FF841F6BF711820FFF79EFE46F2203146
:106A00001120FFF799FE46F220311420FFF794FE83
:106A100064B31220FFF7A2FE04461520FFF79EFE86
:106A200024F4C76420F4C76AA4B21FFA8AFA092EB4
:106A30000ED8DFE806F0BBC00DB60D0D0D0DBBC0C6
:106A40000320FFF78BFE00F47F4040F4547194E77D
:106A500044F004014AF0040A1220FFF76DFE1520ED
:106A60005146FFF769FE322005F052F817211B202E
:106A7000FFF762FE49461720FFF75EFEFB20FFF797
:106A80006DFE20F0060141F0080189B2FB20FFF7FE
:106A900053FEFD20FFF762FE20F0060141F00801E1
:106AA00089B2FD20FFF748FE2720FFF757FE20F4AC
:106AB000807081B20FB941F480712720FFF73CFE4E
:106AC000FA20FFF74BFE20F400704005400D40F423
:106AD0008051FA200191FFF72FFEFC200199FFF76A
:106AE0002BFEAB0740D51120FFF738FE344C204079
:106AF00040F4A04141F0190189B21120FFF71CFEBA
:106B00001220FFF72BFE40F0040081B21220FFF7A5
:106B100013FE1420FFF722FE204040F4A04141F074
:106B2000180189B21420FFF707FE1520FFF716FEA3
:106B300040F0040081B21520FFF7FEFD1720FFF79B
:106B40000DFE20F4E06141F4807189B21720FFF757
:106B5000F3FD1820FFF702FE6FEAC0406FEAD04055
:106B600081B21820FFF7E8FD26F00806012E13D1A8
:106B70001720FFF7F3FD20F4F04141F4006189B2E2
:106B80001720FFF7D9FD1B20FFF7E8FD20F00C00D0
:106B900081B21B20FFF7D0FD47EA081141F08001C8
:106BA0005CE644F00C014AF00C0A55E744F014018D
:106BB0004AF0140A50E744F01C014AF01C0A4BE763
:106BC000FEDFFFFF2DE9F04F00240346A446C3B0CB
:106BD000021D4E1E0092A6EB0C0E0EF101020F2AB2
:106BE0000CF1010540F2A8800CEB5E0E03EBCE0227
:106BF00003EBC508D2F804A0D8F80490F10003EB29
:106C0000C607CA450191796851D28A4533F935B032
:106C10003DD997E8030088E80300F10023F801B0AC
:106C2000C7F80490E900A1F1080933F909A003EBC2
:106C30000908D8F8047092E8030088E8030023F8F4
:106C40003EA0B6465760009A013552F835A0D8F8F4
:106C500004B0DA45F7D30EF1FF3103EBC1010F4663
:106C6000486872468345A1F108010EF1FF3EF6D354
:106C7000754539D297E8030033F935B003EBC50207
:106C800082E80300A7F800B0C7F804A0DBE792E8A9
:106C9000030088E8030023F83EB0C2F80490796846
:106CA0008945BFD997E8030082E80300B5E78A4524
:106CB000B8D997E8030033F93E9082E80300F10069
:106CC00023F80190C7F804A0D8F804705168B942BD
:106CD000A8D2E90033F9019092E8030088E80300A4
:106CE00023F83E9057609DE733F9095097E8030079
:106CF00088E80300911E3D80B01AA1EB0C05854287
:106D0000C7F804B00CD3964213D002A840F834C0A0
:106D100000EBC4004160013431460E4694465AE708
:106D20008C45F9D002A840F8342000EBC40256602C
:106D300001346246F1E70135AE4218D3AE4603EBAB
:106D4000C502F445F7D2D2F80480083A5168884564
:106D5000F1D292E80300174637F9089F0EF1FF3E83
:106D600087E80300A2F80090C2F80480E9E744B184
:106D7000013C02A902AA01EBC40152F8342049687F
:106D8000CBE743B0BDE8F08F70B505460C4616461C
:106D900042B90368C9B29B6898472846BDE870406D
:106DA00001F051B900290ADA0A2A08D12D2101F08F
:106DB00047F961422846F2B201F05BF9EDE721465E
:106DC000F8E7014601238B4201DC9B00FBE7002032
:106DD000012B08DD0A1A9B10D21A4FEA6000F7D483
:106DE00011461844F4E77047002370B4054618466E
:106DF000934208DA35F9134031F913600133A41BCB
:106E000004FB0400F4E770BCFFF7DBBF012908B501
:106E100001D9FFF7D7FE002008BD2DE9F0410F464C
:106E20009046B0F90210069A0646914218DC028894
:106E3000424515D11C460025B6F902300834AB4254
:106E400011DD3388B1686B434246384601EB43019C
:106E5000FFF7CAFF24F8085C44F8040C0135EBE79F
:106E60000120BDE8F0810020FBE700009342F8B567
:106E70000C46064611461D462FDC2046FFF7C6FF8E
:106E800018220021174804F0A4FD0022154995425C
:106E90000FDD34F93270F36833F9170033F8173027
:106EA0000B2B1CD831F810300132013321F810308F
:106EB000EDE700224FF0FF3113460A4830F9024B4C
:106EC0009442C8BF194603F10103C8BF22460C2BE8
:106ED000F4D10020069B1980F8BD0120FCE70520B5
:106EE000FAE700BF70AE07107FB5089E0446009613
:106EF0001D46FFF792FF98B94FF6FF73ADF80E30BD
:106F00000DF10E03009329462046B4F91030B4F970
:106F10000220FFF7ABFF18B9099BBDF80E201A80BD
:106F200004B070BD000000002DE9F04FA64B2DED20
:106F3000028B984600249FEDA08BA44EC7B0A44FAF
:106F400004930596C1464FF400655BEC18ABF9E875
:106F5000022310461946FEF767FA02460B465046D2
:106F60005946FEF7ABF8013D82468B46EFD14FF014
:106F70007D530022FEF758FA41EC100B02F01AFA8A
:106F800051EC100BFEF728FD059B43F8040B05930D
:106F900063020134042C27F8023B40F0AA802B4600
:106FA000DFED8C7A894AB2EC017AB4EE677AF1EEC1
:106FB00010FA03F1010377FE277A042BF3D19FED3A
:106FC000867AF4EEC77AF1EE10FA40F295809FEDE2
:106FD000837A4FF0FF3067EE877A00220346B6ECE3
:106FE000017AF4EEC77AF1EE10FA04D81046B3F144
:106FF000FF3F08BF13460132042AF0D1591C7BD051
:10700000421C79D0724A32F8131032F8103003F56E
:107010000063B3F57A6F94BFC1EB0304C1F57A64E2
:10702000002C69D0684BE200184603EBC10104F064
:10703000B6FC4FF0000800260027DFF88C913046A0
:10704000F9E802233946FEF739F808F10108A045AE
:1070500006460F46F3D12046FEF76CF902460B4672
:1070600030463946FEF70AFB4FF0000A8046894653
:1070700000260027DFF850B14246DBE900014B460D
:10708000FEF71AF821F0004303930290EBE80201A7
:10709000DDE9020132463B46FEF756FC08B1DDE968
:1070A00002670AF1010AA245E6D145A3D3E900230C
:1070B00030463946FEF748FC08BB01F093F94849D1
:1070C00000F0BAFF01F08EF90A222146FFF75CFEBC
:1070D00022463D49434822ABFFF7C4F9F0B901F01D
:1070E00081F9414900F0BBFF47B0BDEC028BBDE820
:1070F000F08F08F5805825E74FF47A6499E70499F2
:107100003B46D1E900013246FEF7B8FA049B01354F
:10711000E3E80201A5420493F1D1CEE7DDE92201C3
:10712000FEF75AFC0524109024AE11ADF6E80201DA
:10713000FEF752FC013C45F8040BF7D10C242EAEAF
:1071400016ADF6E80201FEF747FC013C45F8040BDA
:10715000F7D14FF6FF7312229FED245ADFED246A18
:10716000B6EE006ADFED235A234C2448ADF81A30FE
:1071700010AD07ABF4EC017AB5EC017AF0EC014A02
:1071800037EE677AC7EE247A67EE857AF4EEE67A10
:10719000F1EE10FA34DCF4EEE57AF1EE10FA00F1DB
:1071A0009580F5EEC07AF1EE10FA2BDA77EEC67A1A
:1071B0002AE000BFAFF300800000000000000000E4
:1071C00011EA2D819997713D70230610A0A9061030
:1071D0004C23061000000000CCBC8C2BC355663D30
:1071E00038CB3F02E0A9061053CB3F020000C84253
:1071F00000FEFF46000000C7C0CE3F0260F83F021D
:10720000F0EE667A77EE867AFDEEE77A17EE906A10
:10721000013A1E8003F10203ACD100F09DFB0DF199
:107220001A0301934FF4937305461222009307A9A2
:107230002F4B3048FFF758FE044600F08DFB451BEE
:10724000002C46D001F0CEF82B4900F0F5FE01F0FD
:10725000C9F821460A22FFF797FD4FF0FF3401F0ED
:10726000C1F8264900F0FBFE01F0BCF8244900F00B
:10727000F6FE0B2C30D801F0B5F8224900F0DCFE08
:1072800001F0B0F80A222146FFF77EFD01F0AAF8CE
:107290001D4900F0D1FE01F0A5F81C4B53F8241055
:1072A00000F0DDFE01F09EF8194900F0C5FE01F086
:1072B00099F80A22294600F0DCFE01F093F81549FE
:1072C00000F0CDFE01F08EF80C490BE7F0EE657A88
:1072D0006CE7BDF91A40C2E701F084F80E4900F0EE
:1072E000ABFE01F07FF80A222146FFF74DFDD9E7FA
:1072F00070A00610701906107ACB3F028ECB3F02A9
:10730000B0CB3F02C2CB3F02D8CB3F0290CE3F0270
:1073100007CC3F021CCC3F02EECB3F020000000036
:1073200010B50121072001F069FA0021072001F0C2
:1073300076FA01F057F84FF4E13101F047F840F6E2
:10734000B83000F0C7FE01F04DF800F07CFE01F00F
:1073500049F8514900F083FE01F044F84F4900F02C
:107360007EFE01F03FF84E4900F079FE01F03AF858
:107370004C4900F074FE01F035F84B4900F06FFE07
:1073800001F030F8444900F06AFE01F02BF847495B
:1073900000F052FE01F026F804460A224FF4FA519A
:1073A00000F067FE204600F04EFE01F01BF8404959
:1073B00000F042FE01F016F804460A224FF4FA717A
:1073C00000F057FE204600F03EFE01F00BF8394970
:1073D00000F032FE01F006F804460A224FF47A610A
:1073E00000F047FE204600F02EFE00F0FBFF324981
:1073F00000F022FE00F0F6FF0A221221FFF7C4FC83
:1074000000F0F0FF2D4900F017FE00F0EBFF0A221C
:107410000C21FFF7B9FC9FED1E0B2948FEF75CFF1E
:1074200030B900F0DFFF2749BDE8104000F017BE7B
:1074300000F0D8F901210422C0E904124FF4FA52F5
:107440000368C260DB689847044660B100F0CAFF79
:107450001D4900F0F1FD00F0C5FF2146BDE81040D8
:107460000A22FFF791BC00F0BDF903685B699847F9
:10747000044618B100F0B6FF1449EAE700F0B2FF85
:10748000134900F0ECFD00F0ADFF1249CCE700BF5E
:10749000000000000040BF408ECB3F0220CC3F02E6
:1074A0003FCC3F026FCC3F029CCC3F02DECC3F0280
:1074B000F5CC3F0201CD3F0211CD3F022ACD3F0264
:1074C000E0A9061042CD3F0268CD3F028CCD3F02BD
:1074D000B1CD3F02C4CD3F022DE9F84F00F082FF4D
:1074E00000F0B1FD00F07EFF3A4900F0B8FD00F079
:1074F00079FF394900F0A0FD00F074FF0A224FF433
:10750000FA7100F0B6FD00F06DFF344900F0A7FD00
:107510000121072001F083F900F02CFA0024054630
:107520004FF0000A4FF07D5BDFF8B88000F05AF9A9
:1075300000F068F900F056F9036841461B6A984765
:10754000B8B100F04FF9264B264F03EBC40604F503
:107550008079B4F57A6F0CD237F9020BFDF7FAFE99
:1075600052465B46FDF760FF01344C45E6E80201F8
:10757000EFD100F0FFF940F6C413401B984213D935
:1075800000F030FF184900F06AFD0021072001F0EB
:1075900046F900F027FF154900F061FDBDE8F84FFE
:1075A00040F6C41000F096BDB4F57A6FBED300214A
:1075B000072001F034F900F015FF0D4900F03CFD03
:1075C00000F010FF0A222146FFF7DEFBFFF7ACFCBC
:1075D000DFE700BFDECD3F02EBCD3F02F9CD3F023A
:1075E0007023061070AA0710FDCD3F0229CE3F027E
:1075F00016CE3F020022044B0320C3E90022A2F56D
:1076000080329A6000F030BB4023061001207047A2
:107610006FF0770070477047002303771846704774
:1076200010B504462021FEF750FA204610BD08B5DB
:10763000C368B3F57A5F08D0B3F5FA4F05D0B3F558
:10764000FA5F1CBF4FF47A53C360017AC068FEF73B
:10765000CBFF002008BD10B50446FFF75FF80123FB
:107660000020237710BD08B5007F20B1FFF760F838
:10767000003818BF012008BD37B5057F04461DB985
:107680000025284603B030BD0191FFF751F80146AF
:107690000028F5D02046019A00F0BAF800210846EB
:1076A000FFF748F8EDE7F7B5077F06460D461FB927
:1076B0000027384603B0F0BDFFF73AF8044600282B
:1076C000F6D002460146304600F0A2F84FF480732F
:1076D0000193AB6800940BB901F05AFB6946284648
:1076E000EB6801AA984700210846FFF723F8E0E776
:1076F0004FF0010C0421064AC0E904C14FF4807127
:107700004260002281610349027201600277704782
:107710000B000C00FCFA3F026FF077007047FFF798
:1077200086BFFFF798BFFFF777BFFFF79CBFFFF754
:10773000A3BF000010B50446024B0360FFF76BFFC8
:10774000204610BD2CFB3F0210B50446FFF7F2FFA8
:1077500020462021FEF7B9F9204610BD10B5044699
:10776000024B0360FFF7E6FF204610BD5CFB3F02C3
:1077700010B50446FFF7F2FF20462421FEF7A5F9D5
:10778000204610BD10B58368044613B1032201469C
:107790009847204610BD002330B585B002938B6812
:1077A00005460C4633B1022268469847E3680393C6
:1077B000A368029369462846FFF775FF04466846AA
:1077C000FFF7E0FF204605B030BD000010B50446CD
:1077D000FFF78EFF024B204623600023236210BD7B
:1077E0005CFB3F0238B5064D2B683BB92420FEF701
:1077F00068F9044608B1FFF7E9FF2C60286838BD36
:1078000088AE0710006A10B10368DB68184770473C
:10781000F8B50746036886699B680C46154601EB78
:10782000460698473B69C3B901226FF07F017B6927
:1078300040009A4012B2B44236D2B4F90030044447
:1078400093FBF2F31BB27F2BA8BF7F238B42B8BF01
:107850000B46803B05F8013BEDE7012B17D17A6918
:1078600048F264071149C2F108024000B4421BD239
:10787000B4F90030044493408B4206DBB3F5004F6B
:10788000C8BF3B4625F8023BF0E7084BFAE7AC429D
:1078900001D1012808D04000B44205D2B4F900302B
:1078A000044425F8023BF7E7F8BD00BF0180FFFF65
:1078B00009B504480068044B03441B689B680293A5
:1078C00009BD00006C1906105000000009B50448FD
:1078D0000068044B03441B68DB68029309BD000089
:1078E0006C1906105000000009B504480068044BEC
:1078F00003441B689B68029309BD00006C190610C5
:107900001400000009B504480068044B03441B68D8
:10791000DB68029309BD00006C190610140000001A
:1079200009B504480068044B03441B681B690293B3
:1079300009BD00006C1906101400000009B50448C8
:107940000068044B03441B685B68029309BD000098
:107950006C1906100000000009B504480068044BCB
:1079600003441B681B69029309BD00006C190610D3
:107970000000000009B504480068044B03441B687C
:107980005B69029309BD00006C190610000000003D
:1079900009B504480068044B03441B685B6C029300
:1079A00009BD00006C1906103000000009B504483C
:1079B0000068044B03441B685B69029309BD000027
:1079C0006C1906104C00000009B504480068044B0F
:1079D00003441B68DB68029309BD00006C190610A4
:1079E0002400000009B504480068044B03441B68E8
:1079F0001B69029309BD00006C19061024000000E9
:107A000009B504480068044B03441B685B69029392
:107A100009BD00006C1906102400000009B50448D7
:107A20000068044B03441B689B69029309BD000076
:107A30006C1906102400000009B504480068044BC6
:107A400003441B68DB69029309BD00006C19061032
:107A50002400000009B504480068044B03441B6877
:107A60001B6A029309BD00006C1906102400000077
:107A700009B504480068044B03441B689B6A0293E1
:107A800009BD00006C1906102400000009B5044867
:107A90000068044B03441B681B6C029309BD000083
:107AA0006C1906102400000009B504480068044B56
:107AB00003441B681B6A029309BD00006C19061081
:107AC0001000000009B504480068044B03441B681B
:107AD0005B6A029309BD00006C19061010000000DB
:107AE00009B504480068044B03441B689B6A029371
:107AF00009BD00006C1906101000000009B504480B
:107B00000068044B03441B68DB6A029309BD000054
:107B10006C1906101000000009B504480068044BF9
:107B200003441B681B6B029309BD00006C1906100F
:107B30001000000009B504480068044B03441B68AA
:107B40005B6B029309BD00006C1906101000000069
:107B500009B504480068044B03441B681B6C02937E
:107B600009BD00006C1906101000000009B504489A
:107B70000068044B03441B68DB69029309BD0000E5
:107B80006C1906101800000009B504480068044B81
:107B900003441B681B6A029309BD00006C190610A0
:107BA0001800000009B504480068044B03441B6832
:107BB0001B68029309BD00006C1906103400000018
:107BC00009B504480068044B03441B685B680293D2
:107BD00009BD00006C1906103400000009B5044806
:107BE0000068044B03441B681B69029309BD000035
:107BF0006C1906103400000009B504480068044BF5
:107C000003441B685B69029309BD00006C190610F0
:107C10003400000009B504480068044B03441B68A5
:107C20009B69029309BD00006C1906103400000026
:107C300009B504480068044B03441B68DB690293E0
:107C400009BD00006C1906103400000009B5044895
:107C50000068044B03441B681B6A029309BD0000C3
:107C60006C1906103400000009B504480068044B84
:107C700003441B685B68029309BD00006C19061081
:107C80000800000009B504480068044B03441B6861
:107C90005B69029309BD00006C1906100800000022
:107CA00009B504480068044B03441B68D3F88830C6
:107CB000029309BD6C1906100800000009B50448BC
:107CC0000068044B03441B68D3F89430029309BD49
:107CD0006C1906100800000009B504480068044B40
:107CE00003441B685B68029309BD00006C19061011
:107CF0002800000009B504480068044B03441B68D1
:107D00009B68029309BD00006C1906102800000052
:107D100009B504480068044B03441B68DB68029300
:107D200009BD00006C1906102800000009B50448C0
:107D30000068044B03441B681B69029309BD0000E3
:107D40006C1906102800000009B504480068044BAF
:107D500003441B685B69029309BD00006C1906109F
:107D60002800000009B504480068044B03441B6860
:107D70009B69029309BD00006C19061028000000E1
:107D800009B504480068044B03441B68DB6902938F
:107D900009BD00006C1906102800000009B5044850
:107DA0000068044B03441B681B6A029309BD000072
:107DB0006C1906102800000009B504480068044B3F
:107DC00003441B681B6B029309BD00006C1906106D
:107DD0002800000009B504480068044B03441B68F0
:107DE0005B6B029309BD00006C19061028000000AF
:107DF00009B504480068044B03441B681B6C0293DC
:107E000009BD00006C1906102800000009B50448DF
:107E10000068044B03441B685B6C029309BD0000BF
:107E20006C1906102800000009B504480068044BCE
:107E300003441B685B6D029309BD00006C190610BA
:107E40002800000009B504480068044B03441B687F
:107E50009B6D029309BD00006C19061028000000FC
:107E600009B504480068044B03441B68DB6B0293AC
:107E700009BD00006C1906102C00000009B504486B
:107E80000068044B03441B681B68029309BD000093
:107E90006C1906100400000009B504480068044B82
:107EA00003441B685B68029309BD00006C1906104F
:107EB0000400000009B504480068044B03441B6833
:107EC000DB6A029309BD00006C1906100400000073
:107ED00009B504480068044B03441B68DB6B02933C
:107EE00009BD00006C1906100400000009B5044823
:107EF0000068044B03441B681B6C029309BD00001F
:107F00006C1906100400000009B504480068044B11
:107F100003441B685B6C029309BD00006C190610DA
:107F200004000000002240681146FFF737BF00221E
:107F300040681146FFF74EBF00224068FFF73CBF84
:107F40000022406881F00101FFF71ABF002340685A
:107F50001A461946FFF706BF002340681A4619461D
:107F6000FFF7F2BE002240681146FFF7DFBE002295
:107F700040681146FFF7BEBE002202214068FFF7AD
:107F8000C7BE002340681A46FFF7A6BE0322024B75
:107F90005A60024A1A6070478CAE07108CFB3F0291
:107FA00010B5044608462170FFF7E0FD0023204687
:107FB000636010BD02220020044B1A60044B054A86
:107FC000C3E900009A60FFF74FBE00BFA0AE0710E4
:107FD00094AE07100000FFFF002302480360FFF784
:107FE000D7BC00BFA4AE0710F8B506460D46002466
:107FF0008F18BD420CD0336830469B6815F8011BC2
:108000009847031E01DB1C44F3E7002C08BF1C4605
:108010002046F8BD13B50446084659B10191FDF755
:108020002BFD0246204623680199DB6802B0BDE8BB
:108030001040184702B010BD08B5FFF7EBFF08BDB0
:1080400003689B68184738B50D210546FFF7F8FF10
:108050000A2104462846FFF7F3FF204438BD38B50F
:108060000546FFF7D7FF04462846FFF7ECFF2044FC
:1080700038BD0023012A98BF0A2230B58BB08DF895
:10808000243009AC0D46B1FBF2F101FB125303F0B1
:10809000FF03092B94BF30333733DBB2AA4204F815
:1080A000013DEFD92146FFF7B5FF0BB030BD000011
:1080B000014B024A1A607047A8AE0710C8FB3F0286
:1080C000024B1A68024B1A60704700BF84190610F1
:1080D000ACAE07100021FFF7D5BD00000022014B18
:1080E0009A607047B0AE0710014B1860704700BF30
:1080F0008C19061008B50F4B43B100F073F90368F3
:108100001B699847002801DD00E000BF0A4B43B11E
:1081100000F0CEFB03681B699847002801DD00E0F2
:1081200000BF064B0BB100F009FC054B0BB100F092
:108130003BFC08BD00000000000000000000000043
:108140000000000008B5FFF7D5FFFFF713FC014B57
:10815000186008BD44AF07100548064A08B5121A52
:10816000054903F00FFC054B054A1A6008BD00BF26
:1081700000B4071004B4071090F05F0800B40710B3
:108180001E1C279A002307B51A466FF0770100934B
:10819000FFF794FD03B05DF804FB000007B54388CA
:1081A0000A2B08D0502B0BD1094B1B684BB103B0E5
:1081B0005DF804EB1847FFF7E5FF03B05DF804FB3B
:1081C00000231A466FF077010093FFF777FDF4E77D
:1081D000C4AE0710002110B51148FFF795FE114BF2
:1081E0001A68114B9A420CBF012200220F4B1A70E1
:1081F00001D0FFF7B1FFFFF7A1FB044603F0F2FB4C
:108200000B4B13B1204600E000BF00210848FFF7E8
:1082100027FEBDE8104000210648FFF741BD00BF22
:10822000D1903F0200B407101E1C279AC0AE071061
:108230000000000085913F02704710B504461821E8
:10824000FDF743FC204610BDF0B5037D0E46062B1E
:108250004FF000048DB000F1040712D000F10805C2
:1082600015F8011D0A223046FFF703FFAF42044410
:1082700019D0002CF4D02E213046FFF7E1FE044443
:10828000EEE72F236A4639460A208DF80040FFF7B3
:108290008DFB6846FDF7F0FB3368024669463046C1
:1082A000DB689847044620460DB0F0BD10B5044683
:1082B000044B1122002140F8043B03F08AFB2046C6
:1082C00010BD00BFF0FB3F020346074A10B543F85C
:1082D000042B01F1100251F8044B914243F8044B76
:1082E000F9D10A781A7010BDF0FB3F0210B59DF865
:1082F000084044EA032343EA0242042342EA0161BC
:108300004160037510BD000007B5064B0360CB78D4
:1083100000938B784A780978FFF7E8FF03B05DF89F
:1083200004FB00BFF0FB3F02417470477047704789
:1083300008B50021007CFFF76DFC40EAE07008BD45
:1083400008B50121007CFFF765FC40EAE07008BD3C
:1083500008B5007CFFF750FC20EAE07008BD08B5C6
:10836000007CFFF73BFC20EAE07008BD13B5044633
:10837000007C0191FFF740FC0028019901DC607C42
:1083800020B1207CFFF754FC20EAE07002B010BD61
:10839000007CFFF75BBC10B504461421FDF795FB8C
:1083A000204610BD10B54FF47A73044608460021EC
:1083B000C4E90113044B2074236001231146637444
:1083C000FFF7F0FB204610BD04FC3F020022007CBA
:1083D000FFF7F6BB10B504461422002103F0F9FAAA
:1083E000204610BD10B588B003A8FFF7F3FF0C4C72
:1083F000D4E88F1F11F001010FD120460191FDF744
:1084000066FB019948B103AA0648FFF7CBFF204657
:10841000FDF762FB044803F0AFFA024808B010BD54
:10842000C8AE0710CCAE071015933F0270474174D9
:10843000704708B5007CFFF71BFB20EAE07008BD21
:1084400008B5007CFFF7CEFA20EAE07008BD08B559
:10845000007CFFF7E3FA40EAE07008BD08B5007C55
:10846000FFF7CEFA40EAE07008BD007CFFF7E4BAFF
:1084700037B5457C04462DB1207C03B0BDE83040C3
:10848000FFF7A2BA007C0191FFF7F2FA00280199E8
:10849000F2DC284603B030BD10B504461421FDF7C8
:1084A00014FB204610BD000010B54FF47A7304464B
:1084B000084611460022C4E90123044B20742360BE
:1084C00001236374FFF7E2FA204610BD34FC3F023B
:1084D000007CFFF7BFBA7047F8B5064615460C4654
:1084E0008F18BC4206D0336830469B6814F8011BD5
:1084F0009847F6E72846F8BD0022007CFFF7D4BA7B
:108500000021007CFFF7DEBA0021007CFFF7E8BA0B
:108510000021007CFFF7F2BA0021007CFFF7FCBAD3
:1085200010B504461421FDF7D0FA204610BD000016
:1085300038B5044615464FF47A730022C4E9012386
:10854000094B0846217423602946FFF701FBBF3021
:1085500008D16B69DB0705D56868FFF79DFCE86803
:10856000FFF79AFC204638BD64FC3F0200224068B9
:108570001146FFF7DBBB002240681146FFF70EBC37
:10858000002240681146FFF725BC00224068FFF733
:1085900013BC0022406881F00101FFF7F1BB00230A
:1085A00040681A461946FFF7DDBB002340681A46AB
:1085B0001946FFF7C9BB002240681146FFF79ABB76
:1085C000002202214068FFF7A3BB002340681A463F
:1085D000FFF782BB0422024B5A60024A1A607047BE
:1085E000E0AE07108CFC3F02002340681A46FFF7FC
:1085F00073BB002202214068FFF78ABB002240685B
:108600001146FFF777BB002240681146FFF78EBB8B
:10861000002340681A461946FFF796BB00234068BE
:108620001A461946FFF79EBB00214068FFF7E0BBE2
:1086300000214068FFF7EABB0022406881F0010199
:10864000FFF79EBB00224068FFF7B6BB00224068E0
:108650001146FFF7BFBB002240681146FFF79EBBE3
:1086600000214068FFF7EEBB2DE9F04395B01446BA
:108670000D460746FFF71AFE00211C220DA80091A7
:1086800003F0A7F9402320460C9300216B460CAA67
:10869000FFF71CF9044600284BD102460121686807
:1086A000FFF744FB0221804622466868FFF73EFB45
:1086B00021468146009E002E3BD0002939D17368A7
:1086C000022B03D00A2B11D0F669F4E7B8F1000FA2
:1086D000FAD0716906A804313C1D07ADFFF714FEFE
:1086E0000FCD0FC42B6841462370EDE7B9F1000FA1
:1086F000EAD0102201A8746903F06BF9062301ADDA
:108700008DF8143004F1080318342A4618685968A3
:10871000083303C2A3421546F7D101A906A83C1DA0
:1087200007ADFFF7D1FD0FCD0FC42B68494623706D
:10873000CAE70098FFF7BCF8384615B0BDE8F083EB
:10874000033802289ABF024B53F8200001487047B3
:10875000C8FC3F02E8AE071008B500224068FFF7EA
:1087600063FBBDE80840FFF7EBBF0000024B034A84
:108770001A6000225A607047E8AE0710DCFC3F0226
:108780001B2837B5044602D9002003B030BDA0F144
:108790000F03022B0BD9012821D800F035F9002155
:1087A000007CFFF7C7F980F00100C0B2EDE7114D82
:1087B000D5E88F1F11F001010BD128460191FDF77B
:1087C00086F9019928B10C48FFF7EAFB2846FDF726
:1087D00083F9094B1878FFF7D7F90028D4D1083C62
:1087E000012C05D800F064F8007CFFF733F9DAE7D4
:1087F0000120CAE7F0AE0710F4AE07101B2838B509
:1088000004460D460AD8FF2908D0FFF7B9FF28B162
:1088100029462046BDE83840FFF766B838BD38B570
:1088200004460D46FFF76EF8FF2810D0062804D83E
:108830004D2323FA00F0C30709D42046FFF7A0FF19
:1088400028B129462046BDE83840FFF769B838BD51
:108850007047000038B5142504462A46002103F06D
:10886000B8F825804025074928462581258200F053
:108870008DFA04496060284600F088FAE0602046DE
:1088800038BD00BF47FD3F027047704710B5044632
:10889000FFF7E0FF204610BD10B50446FFF7DAFFF2
:1088A000204610BD10B50446FFF7D4FF204610BD8A
:1088B00030B50E4D87B0D5E88F1F11F0010411D1EE
:1088C0002846FDF704F968B101A8FFF7DFFF21464C
:1088D00001AA0748FFF7E8FD2846FDF7FDF805481F
:1088E00003F04AF8024807B030BD00BFFCAE0710E5
:1088F00008AF071039983F0210B50D4C86B0D4E888
:108900008F3FDB0711D42046FDF7E1F868B101A8DD
:10891000FFF7C2FF012101AA0648FFF7C5FD204667
:10892000FDF7DAF8044803F027F8024806B010BD56
:1089300000AF07101CAF071073983F0210B5FFF788
:10894000DBFF074B044653B1FFF7C2FD38B1236884
:1089500020461B699847002801DD00E000BF10BDDC
:108960000000000010B50D4C86B0D4E88F3FDB0747
:1089700011D42046FDF7ABF868B101A8FFF792FFCC
:10898000022101AA0648FFF78FFD2046FDF7A4F853
:10899000044802F0F1FF024806B010BD04AF071012
:1089A00030AF071071983F0210B5FFF7DBFF074BA0
:1089B000044653B1FFF78CFD38B1236820461B698C
:1089C0009847002801DD00E000BF10BD0000000056
:1089D0007047000038B50A4B04460360012309497B
:1089E0004361202000F0D2F9202560600549284627
:1089F000A56000F0CBF9C4E90305204638BD00BFEF
:108A00001800010047FD3F0230B50E4D87B0D5E894
:108A10008F1F11F0010411D12846FDF758F868B1F5
:108A20006846FFF7D7FF6A4621460748FFF780FDF3
:108A30002846FDF751F8054802F09EFF024807B0AE
:108A400030BD00BF48AF07104CAF0710B9993F02C7
:108A50004FF08042D2F8183223F0FE6343EA005010
:108A6000C2F8180270470000012870B54FF080442A
:108A70004AD1D4F8A0309A0045D44FF09045D5F8AB
:108A80000832022043F08053C5F80832D5F880320E
:108A9000214E43F00303C5F88032B047D5F8803249
:108AA0004FF4C87043F00403C5F88032D4F8803026
:108AB00043F00043C4F88030B047D5F8643223F067
:108AC0000053C5F86432D4F8803043F0C043C4F892
:108AD0008030236823F480232360D4F8843043F06B
:108AE0000103C4F88430D4F8A0309B00FBD5D4F83F
:108AF000803043F48073C4F88030D4F8803043F081
:108B00008003C4F8803070BDD4F8803023F0C043B7
:108B100023F4C073F5E700BF49A910100023C0E992
:108B20000033C0E902337047436801290BBF23F4C7
:108B3000803343F48033436043600BBF4368436832
:108B400043F4003323F40033436070474368012942
:108B50000BBF23F0807343F08073436043600BBF0F
:108B60004368436843F0007323F000734360704729
:108B700038B50B6805460C4633B1023B012B03D9CF
:108B80003A211F4802F0CCFF6368032B06D9063B4D
:108B9000012B03D93B211A4802F0C2FFA368012B25
:108BA00003D93C21164802F0BBFFE368032B03D92D
:108BB0003D21134802F0B4FF6B68002143F001032C
:108BC0006B606B68284623F001036B600D4BEB6113
:108BD0000D4B98470D4B9847D4E900136A681B0268
:108BE00022F0405222F46C5243EA01331343A2684C
:108BF00043EAC223E26843EA02736B6038BD00BFF8
:108C000039FD3F0271021080119B3F02359B3F02EC
:108C1000836801290BBF43F4002323F400238360FE
:108C200083600BBFC368C36823F4002343F40023AD
:108C3000C36070472DE9F7431F46DDE90A560C2350
:108C400058434B4B0C4653F80080D8F8049031B988
:108C50004FF4A7714748019202F062FF019A39462A
:108C60000C23454F0020B847FF2807467ED05422EA
:108C70000021424B204698470B21216408F1100146
:108C800000220223012021621321C9F30139B9F125
:108C9000030FC4E90423A2642263E06463602270CA
:108CA0006770E16244D1C4E90620E260A3602685D2
:108CB000238DB3F5805F04D940F277112D4802F07F
:108CC0002FFF22462E4B61782078656298472D4A07
:108CD0002F465369DB0322D5681C30D1711C30D17B
:108CE0000023C2F88430BFF34F8F43F6E075D2F80B
:108CF0008030C3F3C900C3F34E335B01014603EA7E
:108D0000050747EAC1760139C2F87462F9D2203BFF
:108D100013F1200FF2D1BFF34F8FBFF36F8F207885
:108D200001226178184B9847012003B0BDE8F08319
:108D3000C4E90633E360A360B3082385B8E7EB0614
:108D400007D025F01F073544013D25F01F052035CC
:108D5000EE1B3546BFF34F8F0A4A3744002DA7EB71
:108D60000503D8DDC2F87032203DF7E70020DCE7CC
:108D700018FD3F0224FD3F023DC41010A10E11104A
:108D8000F9BF101000ED00E091BF1010FCF79BBE82
:108D900008B5FFF78FF8000051EC100BF8B5C1F3E0
:108DA0000A530C4610EE106AA3F2FF35132D32DC85
:108DB000002D1EDB364F2F4101EA070303432FD05E
:108DC00031A3D3E90023FCF779F900220023FCF753
:108DD000BBFD48B1002C04DD4FF4801343FA05F5C8
:108DE0002C4424EA070400262346324643EC102B89
:108DF000F8BD25A3D3E90023FCF760F90022002386
:108E0000FCF7A2FD0028EFD0002C39DB264333D03D
:108E10000026204CE8E7332D05DDB5F5806F23D023
:108E200041EC100BF8BDA3F213434FF0FF37DF40C6
:108E30000742F5D014A3D3E90023FCF73FF9002241
:108E40000023FCF781FD0028CED0002C09DD142D75
:108E500014D00123C5F1340503FA05F5AE1928BF76
:108E6000E41826EA0706BFE710EE102A0B46FCF7C7
:108E700025F941EC100BF8BD3446B5E70134F0E7B5
:108E800000264FF00044AFE79C7500883CE4377E35
:108E9000FFFF0F000000F03F51EC100B264A21F0BD
:108EA0000043934220DD254A934200B585B009DD99
:108EB00010EE102A0B46FCF7FFF841EC100B05B042
:108EC0005DF804FB684601F0F3FA00F003000128A6
:108ED0000ED0022822D0D0B101209DED021B9DEDC5
:108EE000000B02F031FBEAE79FED111B01F0C8BD5A
:108EF0009DED021B9DED000B02F026FB53EC102BA9
:108F000003F1004300EE903A05B05DF804FB9DEDDF
:108F1000021B9DED000B01F0B3FDD0E79DED021BA0
:108F20009DED000B01F0ACFDE8E700BFAFF3008062
:108F30000000000000000000FB21E93FFFFFEF7F81
:108F400051EC100BF8B5C1F30A530C4610EE106A41
:108F5000A3F2FF35132D30DC002D1EDB384F2F41DF
:108F600001EA070303432DD033A3D3E90023FCF721
:108F7000A5F800220023FCF7E7FC48B1002C04DA36
:108F80004FF4801343FA05F52C4424EA0704002625
:108F90002346324643EC102BF8BD27A3D3E9002328
:108FA000FCF78CF800220023FCF7CEFC0028EFD061
:108FB000002C29DB00263446EAE7332D05DDB5F524
:108FC000806F19D041EC100BF8BDA3F213434FF0A2
:108FD000FF37DF400742F5D017A3D3E90023FCF7A2
:108FE0006DF800220023FCF7AFFC0028D0D0002C45
:108FF00013DB26EA0706CBE710EE102A0B46FCF738
:109000005DF841EC100BF8BD24F000430D4A3343EA
:109010000026B34218BF1446BAE7142D08D0012326
:10902000C5F1340503FA05F5AE1928BFE418E0E7E9
:109030000134DEE7AFF300809C7500883CE4377EA6
:10904000FFFF0F000000F0BF51EC100B264A21F08B
:109050000043934227DD254A934200B585B009DDE0
:1090600010EE102A0B46FCF727F841EC100B05B068
:109070005DF804FB684601F01BFA00F003000128CC
:1090800016D0022823D0D0B19DED021B9DED000B20
:1090900001F0F6FC53EC102B03F1004300EE903A84
:1090A00005B05DF804FB9FED0E1B002002F04CBAEA
:1090B0009DED021B9DED000B01F0E2FCD7E79DED5D
:1090C000021B9DED000B012002F03EFACFE79DED63
:1090D000021B9DED000B012002F036FADAE700BF1B
:1090E0000000000000000000FB21E93FFFFFEF7FD0
:1090F00038B52DED028B55EC104B00F095F91E4B59
:10910000B0EE408AF0EE608A93F9003001331AD055
:1091100022462B4620462946FCF720FC98B900221F
:10912000002320462946FCF70FFC60B900220023EB
:1091300020462946FCF7E0FB60B1FEF7C9FE22237A
:109140009FED0B8B0360B0EE480AF0EE680ABDECB1
:10915000028B38BDFEF7BCFE212203460748BDEC5A
:10916000028B1A60BDE8384002F0CEBAAFF300803F
:10917000000000000000F0FF8819061048FD3F02C3
:1091800038B52DED028B55EC104B00F065FB1E4BF6
:10919000B0EE408AF0EE608A93F9003001331AD0C5
:1091A00022462B4620462946FCF7D8FB98B90022D8
:1091B000002320462946FCF7B3FB60B100220023C0
:1091C00020462946FCF798FB60B1FEF781FE22237A
:1091D0009FED0B8B0360B0EE480AF0EE680ABDEC21
:1091E000028B38BDFEF774FE212203460748BDEC12
:1091F000028B1A60BDE8384002F086BAAFF30080F7
:10920000000000000000F0FF8819061048FD3F0232
:10921000F8B52DED028B57EC106B55EC114B00F0AF
:10922000B3FB634BB0EE408AF0EE608A93F90030F6
:1092300001332AD022462B4620462946FCF78EFBD6
:1092400018BB32463B4630463946FCF787FB0028C0
:1092500044D10022002330463946FCF74DFBD8B1FB
:109260000022002320462946FCF746FB00283DD17A
:1092700045EC104B02F038FA38B12046294600225E
:109280000023FCF743FB00285CD1B0EE480AF0EE67
:10929000680ABDEC028BF8BDB0EE480AF0EE680A31
:1092A00002F022FA58B30022002351EC180BFCF70D
:1092B00023FB0028E9D047EC106B02F015FA0028D8
:1092C000E3D045EC104B02F00FFA0028DDD0FEF79A
:1092D000FFFD22239FED2E8B0360D6E72046294613
:1092E00000220023FCF708FB0028CED09FED2A8B3C
:1092F000B0EE480AF0EE680ABDEC028BF8BD47EC10
:10930000106B02F0F1F90028CDD045EC104B02F0C3
:10931000EBF90028C7D018EE100A53EC182B1946A9
:10932000FCF71CFB20BBFEF7D3FD22220346394687
:1093300030461A6000220023FCF7E8FA48B99FED96
:10934000188BA2E7FEF7C4FD21239FED178B036066
:109350009BE745EC104B02F0DFF922462B4651EC1F
:10936000100BFCF7C9FA0028E9D19FED0F8B8CE7B1
:10937000FEF7AEFD002200232121016010461946B0
:10938000FCF77CF941EC180B7FE700BFAFF30080DE
:109390000000000000000000000000000000F03F9E
:1093A000000000000000F07F000000000000F0FF5F
:1093B0008819061038B52DED028B55EC104B01F0D5
:1093C0009DFA184BB0EE408AF0EE608A93F90030B7
:1093D00001330DD022462B4620462946FCF7BEFA23
:1093E00030B90022002320462946FCF78FFA30B915
:1093F000B0EE480AF0EE680ABDEC028B38BDFEF70D
:1094000067FD002200232121016010461946FCF768
:1094100035F941EC180BB0EE480AF0EE680ABDECE5
:10942000028B38BD8819061051EC100BB1F5801F66
:109430002DE9F04F0F462DED028B85B054DA21F067
:10944000004310EE102A034300F0F4800029C0F21C
:1094500034810022DC4BFBF7E7FFDC4A0F466FF05C
:109460003504974244DC3B15C7F31307D84AA3F2EF
:10947000FF36D84B3B44264403F480135A4006EB96
:109480001356D34B42EA07010022FBF715FEBB1C23
:1094900082468B46C3F31303022B34DC00220023E5
:1094A000FCF72AFA002800F0D280002E00F05C8140
:1094B0003046FBF74FFF06460F46ADA3D3E9002326
:1094C000FBF7B2FF04460D4630463946AAA3D3E95E
:1094D0000023FBF7A9FF02460B4620462946FBF76F
:1094E000EDFD41EC100B09E0B84A00249742BADDCB
:1094F00002460B46FBF7E2FD41EC100B05B0BDEC5C
:10950000028BBDE8F08FB44B0022FB1801934FF0A3
:109510008043FBF7D3FD02460B4650465946FCF705
:10952000ADF841EC180B3046FBF714FF53EC182B49
:10953000CDE9020151EC180BFBF776FF02460B4612
:1095400080468946FBF770FF04460D468CA3D3E99D
:109550000023FBF769FF8CA3D3E90023FBF7AEFDE3
:1095600022462B46FBF760FF89A3D3E90023FBF7D4
:10957000A5FD22462B46FBF757FF87A3D3E900231F
:10958000FBF79CFD42464B46FBF74EFF8046894663
:109590002046294682A3D3E90023FBF745FF82A397
:1095A000D3E90023FBF78AFD22462B46FBF73CFF5D
:1095B0007FA3D3E90023FBF781FD22462B46FBF76F
:1095C00033FF0B46024649464046FBF777FD834B87
:1095D00089460199DB1B80460B43002B5FDD00228F
:1095E0007F4B50465946FBF71FFF52465B46FBF741
:1095F0001BFF04460D46002E69D122462B464046ED
:109600004946FBF75BFD53EC182BFBF70DFF0246B9
:109610000B4620462946FBF74FFD02460B465046B7
:109620005946FBF749FD41EC100B05B0BDEC028B30
:10963000BDE8F08F0022002300206A49FCF71EF8E5
:1096400041EC100B05B0BDEC028BBDE8F08F5AA3C6
:10965000D3E9002350465946FBF7E6FE02460B4687
:1096600000205F49FBF728FD04460D4652465B4645
:1096700050465946FBF7D8FE02460B46204629467F
:10968000FBF7D2FE04460D46002E59D102460B468A
:1096900050465946FBF710FD41EC100B2EE7002E0B
:1096A00040F0A28042464B4650465946FBF704FD27
:1096B00053EC182BFBF7B8FEAFE70B46FBF7FCFCAF
:1096C00000220023FBF7DAFF41EC100B16E728A37A
:1096D000D3E90023DDE90201FBF7A6FE22462B4673
:1096E00006460F4640464946FBF7E8FC53EC182B6C
:1096F000FBF79AFE804689461FA3D3E90023DDE9E4
:109700000201FBF791FE02460B4640464946FBF735
:10971000D5FC02460B4620462946FBF7CDFC5246B7
:109720005B46FBF7C9FC02460B4630463946FBF761
:10973000C3FC41EC100B05B0BDEC028BBDE8F08F13
:109740003046FBF707FE8046894609A3D3E900238C
:10975000FBF76AFE06460F464046494606A3D3E994
:109760000023FBF761FED4E79FED150BC6E600BFB3
:109770000000E0FE422EE63F763C7935EF39EA3DC7
:1097800044523EDF12F1C23FDE03CB966446C73F30
:10979000599322942449D23F935555555555E53F49
:1097A0009FC678D0099AC33FAF788E1DC571CC3F54
:1097B00004FA97999999D93F555555555555D53F1F
:1097C000000000000000000000005043FFFFEF7F9A
:1097D0000000F03F645F090086EBF9FF51B8060016
:1097E0000000E03F000050C317A3D3E90023DDE9E8
:1097F0000201FBF719FE42464B4604460D46504611
:109800005946FBF759FC53EC182BFBF70DFE0646A7
:109810000F460FA3D3E90023DDE90201FBF704FEA5
:1098200002460B4630463946FBF746FC52465B463D
:10983000FBF742FC02460B4620462946FBF73CFC60
:1098400041EC100B5AE600BF0000E0FE422EE63F5E
:10985000763C7935EF39EA3D2DE9F84355EC104B6C
:10986000B5F5801F2B461EDA25F0004222435FD05B
:10987000002D67DB294600223F4B10EE100AFBF754
:10988000D3FD0D463D4A04462B466FF03501934209
:109890000DDD22462B4620462946FBF70FFC41EC06
:1098A000100BBDE8F883354A00219342F1DC18150E
:1098B000C3F31306A0F2FF300844C70F00EBD070CB
:1098C000FBF748FD40F2FF3380468946DB1B46EA42
:1098D000035545EC104BFFF7A7FD4046494620A332
:1098E000D3E9002357EC106BFBF79EFD04460D46B1
:1098F000304639461CA3D3E90023FBF795FD024609
:109900000B4620462946FBF7D9FB04460D46404648
:10991000494617A3D3E90023FBF786FD02460B4611
:1099200020462946FBF7CAFB41EC100BBDE8F88343
:109930000022002300201249FBF7A0FE41EC100B8F
:10994000BDE8F88310EE102A20462946FBF7B4FB49
:1099500000220023FBF792FE41EC100BA1E700BFB1
:10996000362BF111F3FE593D0EE526157BCBDB3F7F
:1099700000609F501344D33F00005043FFFFEF7F30
:10998000000050C3000000002DE9F04F55EC114BD2
:1099900025F0004A5AEA04022DED0C8B87B01FD047
:1099A0005D4910EE102A57EC106B27F00048B946BD
:1099B000884511DCAB4611EE103A08D13EB157484C
:1099C00007B0BDEC0C8BBDE8F04F01F09DBE5249D5
:1099D0008A4501DC0BD153B1514B43441343EED1C3
:1099E0009FED490B07B0BDEC0C8BBDE8F08FB9F1D2
:1099F000000F45DB0021009183B9474B9A455BD0AE
:109A0000484B9A456AD0BBF1804F00F0B084464B7A
:109A10009B4503D1B9F1000F80F20D85029247EC0E
:109A2000106B01F057FE029A4AB929F040433D4AB3
:109A3000934200F0A883B8F1000F00F0A4834FEA2E
:109A4000D973009A013B049313434ED0374B9A4588
:109A500072DD03F104739A45354B40F32B8498452E
:109A600040F3A983BBF1000F40F3A98328A3D3E9F6
:109A7000002310461946FBF7D7FC41EC100BB1E769
:109A80002C498A4527DCA1F154718A45B2DD4FEAA1
:109A90002A51A1F2FF31142940F37D84C1F1340130
:109AA00023FA01F000FA01F19942A3D100F001007C
:109AB000C0F1020100919FE7194B434413438FD03B
:109AC0001B4B984540F3AB83BBF1000FC0F277838B
:109AD00045EC104B86E7022100918DE7BBF1000FAA
:109AE000C0F24F8447EC106B7CE732463B46104691
:109AF0001946FBF7E1FA02460B46FBF7BFFD41ECC6
:109B0000100B6FE7AFF30080000000000000F03F93
:109B10009C7500883CE4377E0000F07F48FD3F02E2
:109B2000000010C00000F03F0000E03F0000E041F6
:109B3000FFFFEF3FFFFF3F43E34B002209EA030330
:109B400053B9E24B51EC100BFBF76EFC6FF0340293
:109B500041EC100B10EE908A4FEA2853C8F313081B
:109B6000DB4EA3F2FF3348EA06069A18D94B984514
:109B7000059207DDD84B984540F333840132A6F5B2
:109B80008016059200279FEDB87B9FEDB96BB0EE74
:109B900047DAF0EE67DAB0EE47CAF0EE67CA51EC8A
:109BA000160B53EC102B3346761043EC192B41EC7B
:109BB0001A0B02460B4646F0005651EC190BFBF708
:109BC0007BFA8046894653EC1A2B51EC190BFBF7B4
:109BD00075FA02460B460020BD49FBF74FFD41ECEC
:109BE0001B0B53EC1B2B40464946FBF71DFC0A465A
:109BF00006F5002341EC180B01460020CDE90212C6
:109C00000021064602460291D919DDE902AB0F4652
:109C10000B4650465946FBF707FC02460B464046AA
:109C20004946FBF749FA804689463046394653ECA7
:109C30001A2BFBF741FA02460B4651EC190BFBF7C6
:109C40003BFA52465B46FBF7EFFB02460B464046AB
:109C50004946FBF731FA53EC1B2BFBF7E5FB53ECC2
:109C6000182B41EC1A0B51EC180BFBF7DDFB0646E9
:109C70000F4681A3D3E90023FBF7D6FB80A3D3E9EA
:109C80000023FBF71BFA32463B46FBF7CDFB7EA3D6
:109C9000D3E90023FBF712FA32463B46FBF7C4FB3D
:109CA0007BA3D3E90023FBF709FA32463B46FBF7D7
:109CB000BBFB79A3D3E90023FBF700FA32463B460E
:109CC000FBF7B2FB76A3D3E90023FBF7F7F9804655
:109CD000894632463B4630463946FBF7A5FB0246ED
:109CE0000B46404649464FF00008FBF79DFB5246A5
:109CF00006460F465B4651EC180BFBF7DFF953ECB9
:109D00001A2BFBF791FB32463B46FBF7D7F952463D
:109D10005B4641EC190B50465946FBF785FB002288
:109D20006E4B06460F46FBF7C9F953EC192BFBF7B0
:109D3000C5F98946424650464B465946FBF774FBE7
:109D4000002282468B46654B40464946FBF7B4F9F4
:109D500032463B46FBF7B0F902460B4651EC190B75
:109D6000FBF7AAF953EC182BFBF75EFB06460F46F0
:109D700042464B4651EC1A0BFBF756FB02460B468C
:109D800030463946FBF79AF98046894650464246A6
:109D900059464B46FBF792F900200F46064642A370
:109DA000D3E90023FBF740FB52465B4641EC190B1D
:109DB00030463946FBF780F902460B464046494695
:109DC000FBF77AF93AA3D3E90023FBF72DFB804692
:109DD00089463046394638A3D3E90023FBF724FBF4
:109DE00002460B4640464946FBF768F953EC1C2BEC
:109DF000FBF764F906460F460598FBF7ABFA3246C7
:109E0000804689463B4651EC190BFBF757F953EC5A
:109E10001D2BFBF753F942464B46FBF74FF9002049
:109E200042464B4682468B46FBF746F953EC1D2BC8
:109E3000FBF742F953EC192BFBF73EF902460B46B0
:109E400030463946FBF738F9009B049A013B13432F
:109E500041EC180B40F0DC819FED197BB0EE479A86
:109E6000F0EE679A3CE000BF000000000000000038
:109E7000000000000000F03FEF4E454A287ECA3F38
:109E800065DBC9934A86CD3F01411DA96074D13F6E
:109E90004D268F515555D53FFFAB6FDBB66DDB3F80
:109EA000033333333333E33F000000E009C7EE3FB1
:109EB000FD033ADC09C7EE3FF5015B14E02F3EBE1F
:109EC000000000000000F0BF0000F07F00004043F1
:109ED0000000F03F8E98030079B60B0000000840A8
:109EE000002320462946CDE900450093DDE900899D
:109EF00042464B46FBF7E0F85B465246FBF794FAC6
:109F000006460F4622462B4651EC180BFBF78CFAFF
:109F100002460B4630463946FBF7D0F84246044627
:109F20000D464B4659465046A046FBF77DFA06467D
:109F30000F462046294632463B46A946FBF7BEF867
:109F4000D54B04460D4699428B4640F33B81D34B9B
:109F50000B44034340F0358240464946B6A3D3E95B
:109F60000023FBF7ABF832463B4641EC180B20468A
:109F70002946FBF7A1F802460B4651EC180BFBF7FC
:109F8000E3FC002840F01D82CBF30A534FF480120B
:109F9000A3F2FE33C24CBBF1000F42FA03F34FF0C1
:109FA00000005B44C3F30A52C3F3130AA2F2FF3268
:109FB0004AF4801A44FA02F4C2F1140223EA0401BA
:109FC0004AFA02FA024630460B46B8BFCAF1000A06
:109FD0003946FBF771F802460B4606460F464046E7
:109FE00049464FEA0A5BFBF769F80D46002429460B
:109FF00093A3D3E900232046FBF716FA32463B46EB
:10A0000006460F4620462946FBF756F802460B4601
:10A0100040464946FBF750F88BA3D3E90023FBF7F2
:10A0200003FA804689462046294689A3D3E90023BE
:10A03000FBF7FAF902460B4640464946FBF73EF865
:10A04000804689463046424639464B46FBF736F84D
:10A05000324604460D463B46FBF72EF802460B46B9
:10A0600040464946FBF728F82246804689462B465B
:10A0700020462946FBF7D8F906460F4676A3D3E9D2
:10A080000023FBF7D1F976A3D3E90023FBF714F8FB
:10A0900032463B46FBF7C8F973A3D3E90023FBF72D
:10A0A0000DF832463B46FBF7BFF971A3D3E9002315
:10A0B000FBF702F832463B46FBF7B6F96EA3D3E94D
:10A0C0000023FAF7FBFF32463B46FBF7ADF90246A9
:10A0D0000B4620462946FAF7EFFF06460F46204674
:10A0E000324629463B46FBF79FF900224FF080435A
:10A0F00041EC180B30463946FAF7DEFF02460B46B4
:10A1000051EC180BFBF7BAFA424606460F464B468F
:10A1100020462946FBF788F942464B46FAF7CEFF20
:10A1200002460B4630463946FAF7C6FF22462B4612
:10A13000FAF7C2FF02460B4600205A49FAF7BCFF65
:10A140008B4402460B46BBF5801FC0F26C8159461A
:10A1500053EC192BFBF768F941EC100B42E447EC88
:10A16000106B009201F0B6FA009A002A7FF4BDACA1
:10A1700029F040434B4A934203D0B8F1000F7FF4DB
:10A18000B4AC00230093BBF1000F07DA002045496F
:10A1900053EC102BFBF772FA41EC100BB9F1000FE6
:10A1A000BFF620AC404B009A4344134340F02D814E
:10A1B00053EC102B9BE4BBF1000FFFF657AC9FED67
:10A1C000300B0FE421F00043DFF8E4C0634540F3B7
:10A1D000F080364B0B4403430AD132463B46FAF734
:10A1E0006BFF42464B46FBF7A5FB00283FF4CCAE85
:10A1F00025A3D3E9002351EC190BFBF715F922A392
:10A20000D3E90023FBF710F941EC100BFFF7EABB91
:10A210009FED1F7BB0EE479AF0EE679A60E6BBF1C8
:10A22000000FCCDA05F1004300EE104A00EE903A40
:10A23000FFF7D8BBAFF30080FE822B654715973C34
:10A2400000000000432EE63FEF39FAFE422EE63FC3
:10A25000396CA80C615C20BED0A4BE726937663E22
:10A26000F16BD2C541BDBB3E2CDE25AF6A56113F16
:10A2700093BDBE166CC1663F3E5555555555C53FFD
:10A28000000000000000000059F3F8C21F6EA50195
:10A29000000000000000F03FFFFF8F40000070BF93
:10A2A000FFFF0F000000F03F000010C000346F3FC0
:10A2B000FFCB90409845FFF67EAF794B98453FF72E
:10A2C000D1AB0022764B51EC100BFAF7F5FE0646A7
:10A2D0000F4663A3D3E90023FBF7A6F882468B461B
:10A2E0003046394660A3D3E90023FBF79DF80022EE
:10A2F0006C4B41EC180B30463946FBF795F802469B
:10A300000B465BA1D1E90001FAF7D6FE32463B4687
:10A31000FBF78AF802460B4600206349FAF7CCFEA9
:10A320008046894632463B4630463946FBF77CF844
:10A3300002460B4640464946FBF776F84EA3D3E962
:10A340000023FBF771F802460B4651EC180BFAF7A5
:10A35000B3FE06460F465046594632463B46FAF78C
:10A36000ADFE002052465B4682468B4664E532468F
:10A370003B4630463946FBF757F841EC100BFFF7E8
:10A3800031BB0020464932463B46FBF777F941ECAA
:10A39000100BFFF727BB002B7FF4E1AEC1F11401D6
:10A3A0004AFA01F000FA01F151454DD00093FFF750
:10A3B00027BB3D4A93424EDCDDE90023934692469B
:10A3C00014E62FA3D3E9002351EC190BFBF72CF86B
:10A3D0002BA3D3E90023FBF727F841EC100BFFF781
:10A3E00001BB9FED297B4FF48027B0EE47DAF0EEFA
:10A3F00067DA9FED277BB0EE47CAF0EE67CA9FEDA4
:10A40000267B51EC170BFFF7CCBB009B012B7FF495
:10A41000E9AA10EE901A10EE102A01F1004343EC65
:10A42000102BFFF7DFBA504643EC102B01F010FA67
:10A4300051EC100B8CE647EC106B07B0BDEC0C8BAD
:10A44000BDE8F04F00F05ABA00F00100C0F102037D
:10A450000093FFF7D5BA1B1598E500BFAFF3008056
:10A46000000000604715F73F44DF5DF80BAE543E37
:10A47000555555555555D53FFE822B654715F73F28
:10A480009C7500883CE4377E0000004003B8E23F42
:10A4900006D0CF43EBFD4C3E000000000000F83F2B
:10A4A0000000F03F0000D03F0000E03F000000004F
:10A4B00053EC102B2DE9F04F914923F00045044651
:10A4C0008D422DED068B8BB040F38C808D491F465D
:10A4D0008D422BDC002F194610EE100A7EA3D3E923
:10A4E000002340F3B881FAF7E7FD874B80468946A1
:10A4F0009D4200F08F80012679A3D3E90023FAF76B
:10A50000DBFD02460B4640464946C4E90023FAF704
:10A51000D3FD73A3D3E90023FAF7CEFDC4E902010A
:10A5200030460BB0BDEC068BBDE8F08F77498D420D
:10A5300040F3928076498D4261DC2E1510EE100AB0
:10A540009046A6F21646A5EB06518946FBF71CFA83
:10A55000FAF700FF02460B4640464946CDE9042380
:10A56000FAF7AAFD00226B4BFAF75EFF8946804698
:10A57000FBF70AFA0546FAF7EDFE02460B4640469F
:10A580004946CDE90623FAF797FD0022614BFAF719
:10A590004BFF02460B46CDE9082300220023FBF7C0
:10A5A000ABF9002800F05581002D0CBF01230223D8
:10A5B0005949324604A8019102210091214600F038
:10A5C0009FFB002F0646ABDA61684642226801F124
:10A5D0000043E168C4E90023A26801F10043C4E933
:10A5E00002239DE7002000210026C4E90201304635
:10A5F00084ED000B0BB0BDEC068BBDE8F08F10EEC8
:10A60000100A1946FAF758FD0026C4E90201C4E908
:10A61000000185E734A3D3E90023FAF74DFD804616
:10A620008946012632A3D3E90023FAF745FD024605
:10A630000B4640464946C4E90023FAF73DFD2CA3EA
:10A64000D3E90023FAF738FDC4E9020130460BB024
:10A65000BDEC068BBDE8F08F01F03CF810EE100A5F
:10A6600059EC108B24A3D3E900234946FAF7DCFE0A
:10A6700000222A4BFAF722FDFBF786F90646FAF785
:10A6800069FE02460B4643EC182B13A3D3E90023C3
:10A69000FAF7CAFE02460B4640464946B0EE489AD3
:10A6A000F0EE689AFAF708FD82468B460CA3D3E9D0
:10A6B000002351EC180BFAF7B7FE1F2E41EC180BD4
:10A6C00030DC174B721E53F82230AB422AD00246C0
:10A6D0000B469DE0AFF3008000004054FB21F93FA2
:10A6E0003163621A61B4D03D0000601A61B4D03D9C
:10A6F0007370032E8A19A33B83C8C96D305FE43F92
:10A70000FB21E93F7BD90240FB21F93FFB21394185
:10A71000FFFFEF7F00007041CCFD3F020000E03FF3
:10A720004CFD3F022B1550465946039353EC182B12
:10A73000FAF7C2FCC1F30A5380468946C3EB1555AC
:10A74000102D6BDD64A3D3E9002351EC190BFAF74C
:10A750006BFE804689465046424659464B46FAF7BC
:10A76000ABFC02460B465046594692469B4643EC8C
:10A770001A2BFAF7A1FC42464B46FAF79DFC80469D
:10A78000894657A3D3E9002351EC190BFAF74CFE85
:10A7900042464B46FAF790FC02460B465046594655
:10A7A00043EC182BFAF788FC039AC1F30A5380464E
:10A7B0008946D31A312B31DD4CA3D3E9002351EC68
:10A7C000190BFAF731FE8046894642464B4651EC5A
:10A7D0001A0BFAF771FC82468B4652465B4651ECE7
:10A7E0001A0BFAF769FC42464B46FAF765FC8046BD
:10A7F000894640A3D3E9002351EC190BFAF714FE64
:10A8000042464B46FAF758FC02460B4643EC182BDF
:10A8100050465946FAF750FC8046894642464B4618
:10A8200050465946C4E90089FAF746FC53EC182B08
:10A83000FAF742FC002FC4E90201BFF671AE09F13C
:10A8400000437642C4E9008301F10043C4E90203F6
:10A8500066E60323ACE6FAF731FC234B80468946D3
:10A860009D4216D04FF0FF3619A3D3E90023FAF723
:10A8700025FC02460B4640464946C4E90023FAF748
:10A880001BFC13A3D3E90023FAF718FCC4E9020167
:10A8900046E611A3D3E90023FAF710FC8046894667
:10A8A0004FF0FF360EA3D3E90023FAF707FC024668
:10A8B0000B4640464946C4E90023FAF7FDFB08A3CE
:10A8C000D3E90023FAF7FAFBC4E9020128E600BF46
:10A8D0003163621A61B4D03D0000601A61B4D03DAA
:10A8E0007370032E8A19A33BFB21F93F0000002E51
:10A8F0008A19A33BC14920259A837B395E492DE9FA
:10A90000F04155EC104BA94300F09480002D2B46EC
:10A9100010EE102A5ADD281567D0C3F31303C107C0
:10A92000A0F2FF3743F4801303D45B0003EBD27330
:10A930005200D10F00267F104FF0160C01EB43039D
:10A94000B64652004FF400110EEB0100984203DCB2
:10A950001B1A00EB010E0E445B00BCF1010C4FEA28
:10A96000510103EBD2734FEA4202EDD16546202438
:10A970004FF0004114E00AD1904208D8002800EBC3
:10A98000010C1DDBF0460023121A0D44C646D00F01
:10A99000013C4FEA510100EB43034FEA420233D03E
:10A9A000734501EB0C00E6DD002800EB010C07DB32
:10A9B000F046A3EB0E03904288BF03F1FF33E3E7B9
:10A9C000BCF1000FF4DB0EF10108F2E725F00041C5
:10A9D000214328D0002D3DD12846D10A15385205F3
:10A9E0000B460029F9D0CF0241D400245B00254654
:10A9F0000134DE02FAD519461346A240C4F1200400
:10AA0000E340401B0B4388E713430ED16C08F30768
:10AA10001A4948BF44F0004401EB6601224601EBAD
:10AA2000075343EC102BBDE8F0816A1C1DD06C1C51
:10AA30006408ECE710EE102A2B4610EE100A2946A7
:10AA4000FAF7F2FC22462B46FAF738FB41EC100BE2
:10AA5000BDE8F08120462946FAF72EFB02460B4658
:10AA6000FAF70CFE41EC100BDDE70136CFE7134699
:10AA700020244FF0FF35C3E70000F07F0000E03FE7
:10AA80002DE9F84F57EC106B27F00049B9F1795FC9
:10AA90005BEC11AB2DED048B71DA10EE100A394628
:10AAA000FAF772FF002800F0F68032463B46304647
:10AAB0003946FAF7B9FC04460D467BA3D3E90023D7
:10AAC000FAF7B2FC7AA3D3E90023FAF7F7FA2246A1
:10AAD0002B46FAF7A9FC78A3D3E90023FAF7ECFA9E
